:020000040800F2
:1000000000500020BD020008990100089D01000871
:10001000A1010008A5010008A901000800000000D6
:10002000000000000000000000000000AD0100081A
:10003000B101000800000000B5010008B901000886
:100040000503000805030008050300080503000870
:100050000503000805030008050300080503000860
:100060000503000805030008050300080503000850
:100070000503000805030008050300080503000840
:100080000503000805030008050300080503000830
:100090000503000805030008050300080503000820
:1000A0000503000805030008050300080503000810
:1000B0000503000805030008050300080503000800
:1000C00005030008050300080503000805030008F0
:1000D00005030008050300080503000805030008E0
:1000E00005030008050300080503000800000000E0
:1000F0000000000000000000000000000000000000
:0C01000000000000000000005FF808F1A3
:10010C000348044B834202D0034B03B1184770479A
:10011C000400002004000020000000000548064BED
:10012C001B1AD90F01EBA301491002D0034B03B1E9
:10013C001847704704000020040000200000000055
:10014C0010B5064C237843B9FFF7DAFF044B13B113
:10015C000448AFF300800123237010BD040000207D
:10016C00000000002804000808B5044B1BB104492A
:10017C000448AFF30080BDE80840CFE70000000062
:10018C00080000202804000800207047704700BFBA
:10019C00FEE700BFFEE700BFFEE700BFFEE700BFC3
:1001AC00704700BF704700BF704700BF704700BF6B
:1001BC0010B400204FF41F04394A83B01168394B36
:1001CC0041F00101116051680B405360136823F03A
:1001DC00847323F480331360136823F48023136037
:1001EC00536823F4FE0353609460009001901368ED
:1001FC0043F48033136003E0009BB3F5A06F09D088
:10020C00136803F400330193009B01330093019BAB
:10021C00002BF1D0224B1B6813F4003318BF0123C1
:10022C000193019B012B06D04FF000621E4B9A608C
:10023C0003B010BC70471D4A194B116841F01001F6
:10024C001160116821F007011160116841F0020181
:10025C0011605A685A605A685A605A6842F480624F
:10026C005A605A6822F47C125A605A6842F4E812B6
:10027C005A601A6842F080721A601A689201FCD5B2
:10028C005968074A21F003015960596841F002018D
:10029C005960536803F00C03082BFAD1C4E700BF74
:1002AC00001002400000FFF800ED00E000200240CA
:1002BC00002103E00B4B5B58435004310A480B4BB5
:1002CC0042189A42F6D30A4A02E0002342F8043B51
:1002DC00084B9A42F9D3FFF76BFF00F015F8FFF7C4
:1002EC0053FF70474C04000800000020040000205D
:1002FC0004000020B8010020FEE7000000230146A6
:10030C001A46184600F040B870B50F4B0F4DAB4273
:10031C00A3EB050607D00024B61055F8043B0134B6
:10032C009847A642F9D800F079F8094D094B5E1BA5
:10033C00AB424FEAA60606D0002455F8043B013424
:10034C009847A642F9D870BD400400084004000844
:10035C00400400084804000838B5074D074C2C1B16
:10036C00A41005D0013C55F8043D9847002CF9D158
:10037C00BDE8384000F058B84C04000848040008A8
:10038C00704700BF704700BF2DE9F8431B4D064670
:10039C00286898460F469146FFF7F2FF184B1C68E9
:1003AC001CB3286865681F2D22DC4EB96B1C023506
:1003BC00636044F82570FFF7E5FF0020BDE8F88383
:1003CC00012304EB8501C1F88890D4F88821AB4057
:1003DC001A43022EC4F88821C1F80881E6D1D4F85A
:1003EC008C211A43C4F88C21E0E7064C1C60D8E73A
:1003FC00FFF7C8FF4FF0FF30E0E700BF0000002020
:10040C00B401002024000020024B13B10248FFF776
:10041C0075BF70470000000065030008F8B500BF09
:10042C00F8BC08BC9E467047F8B500BFF8BC08BCC9
:04043C009E46704721
:08044000150400087501000815
:040448004D0100085A
:04044C00200000206C
:04000005080002BD30
:00000001FF
